{
  "_format": "hh-sol-artifact-1",
  "contractName": "Domains",
  "sourceName": "contracts/Domains.sol",
  "abi": [
    {
      "inputs": [
        {
          "internalType": "string",
          "name": "_tld",
          "type": "string"
        }
      ],
      "stateMutability": "payable",
      "type": "constructor"
    },
    {
      "anonymous": false,
      "inputs": [
        {
          "indexed": true,
          "internalType": "address",
          "name": "owner",
          "type": "address"
        },
        {
          "indexed": true,
          "internalType": "address",
          "name": "approved",
          "type": "address"
        },
        {
          "indexed": true,
          "internalType": "uint256",
          "name": "tokenId",
          "type": "uint256"
        }
      ],
      "name": "Approval",
      "type": "event"
    },
    {
      "anonymous": false,
      "inputs": [
        {
          "indexed": true,
          "internalType": "address",
          "name": "owner",
          "type": "address"
        },
        {
          "indexed": true,
          "internalType": "address",
          "name": "operator",
          "type": "address"
        },
        {
          "indexed": false,
          "internalType": "bool",
          "name": "approved",
          "type": "bool"
        }
      ],
      "name": "ApprovalForAll",
      "type": "event"
    },
    {
      "anonymous": false,
      "inputs": [
        {
          "indexed": true,
          "internalType": "address",
          "name": "from",
          "type": "address"
        },
        {
          "indexed": true,
          "internalType": "address",
          "name": "to",
          "type": "address"
        },
        {
          "indexed": true,
          "internalType": "uint256",
          "name": "tokenId",
          "type": "uint256"
        }
      ],
      "name": "Transfer",
      "type": "event"
    },
    {
      "inputs": [
        {
          "internalType": "address",
          "name": "to",
          "type": "address"
        },
        {
          "internalType": "uint256",
          "name": "tokenId",
          "type": "uint256"
        }
      ],
      "name": "approve",
      "outputs": [],
      "stateMutability": "nonpayable",
      "type": "function"
    },
    {
      "inputs": [
        {
          "internalType": "address",
          "name": "owner",
          "type": "address"
        }
      ],
      "name": "balanceOf",
      "outputs": [
        {
          "internalType": "uint256",
          "name": "",
          "type": "uint256"
        }
      ],
      "stateMutability": "view",
      "type": "function"
    },
    {
      "inputs": [
        {
          "internalType": "string",
          "name": "",
          "type": "string"
        }
      ],
      "name": "domains",
      "outputs": [
        {
          "internalType": "address",
          "name": "",
          "type": "address"
        }
      ],
      "stateMutability": "view",
      "type": "function"
    },
    {
      "inputs": [
        {
          "internalType": "string",
          "name": "name",
          "type": "string"
        }
      ],
      "name": "getAddress",
      "outputs": [
        {
          "internalType": "address",
          "name": "",
          "type": "address"
        }
      ],
      "stateMutability": "view",
      "type": "function"
    },
    {
      "inputs": [
        {
          "internalType": "uint256",
          "name": "tokenId",
          "type": "uint256"
        }
      ],
      "name": "getApproved",
      "outputs": [
        {
          "internalType": "address",
          "name": "",
          "type": "address"
        }
      ],
      "stateMutability": "view",
      "type": "function"
    },
    {
      "inputs": [
        {
          "internalType": "string",
          "name": "name",
          "type": "string"
        }
      ],
      "name": "getRecord",
      "outputs": [
        {
          "internalType": "string",
          "name": "",
          "type": "string"
        }
      ],
      "stateMutability": "view",
      "type": "function"
    },
    {
      "inputs": [
        {
          "internalType": "address",
          "name": "owner",
          "type": "address"
        },
        {
          "internalType": "address",
          "name": "operator",
          "type": "address"
        }
      ],
      "name": "isApprovedForAll",
      "outputs": [
        {
          "internalType": "bool",
          "name": "",
          "type": "bool"
        }
      ],
      "stateMutability": "view",
      "type": "function"
    },
    {
      "inputs": [],
      "name": "name",
      "outputs": [
        {
          "internalType": "string",
          "name": "",
          "type": "string"
        }
      ],
      "stateMutability": "view",
      "type": "function"
    },
    {
      "inputs": [
        {
          "internalType": "uint256",
          "name": "tokenId",
          "type": "uint256"
        }
      ],
      "name": "ownerOf",
      "outputs": [
        {
          "internalType": "address",
          "name": "",
          "type": "address"
        }
      ],
      "stateMutability": "view",
      "type": "function"
    },
    {
      "inputs": [
        {
          "internalType": "string",
          "name": "name",
          "type": "string"
        }
      ],
      "name": "price",
      "outputs": [
        {
          "internalType": "uint256",
          "name": "",
          "type": "uint256"
        }
      ],
      "stateMutability": "pure",
      "type": "function"
    },
    {
      "inputs": [
        {
          "internalType": "string",
          "name": "",
          "type": "string"
        }
      ],
      "name": "records",
      "outputs": [
        {
          "internalType": "string",
          "name": "",
          "type": "string"
        }
      ],
      "stateMutability": "view",
      "type": "function"
    },
    {
      "inputs": [
        {
          "internalType": "string",
          "name": "name",
          "type": "string"
        }
      ],
      "name": "register",
      "outputs": [],
      "stateMutability": "payable",
      "type": "function"
    },
    {
      "inputs": [
        {
          "internalType": "address",
          "name": "from",
          "type": "address"
        },
        {
          "internalType": "address",
          "name": "to",
          "type": "address"
        },
        {
          "internalType": "uint256",
          "name": "tokenId",
          "type": "uint256"
        }
      ],
      "name": "safeTransferFrom",
      "outputs": [],
      "stateMutability": "nonpayable",
      "type": "function"
    },
    {
      "inputs": [
        {
          "internalType": "address",
          "name": "from",
          "type": "address"
        },
        {
          "internalType": "address",
          "name": "to",
          "type": "address"
        },
        {
          "internalType": "uint256",
          "name": "tokenId",
          "type": "uint256"
        },
        {
          "internalType": "bytes",
          "name": "_data",
          "type": "bytes"
        }
      ],
      "name": "safeTransferFrom",
      "outputs": [],
      "stateMutability": "nonpayable",
      "type": "function"
    },
    {
      "inputs": [
        {
          "internalType": "address",
          "name": "operator",
          "type": "address"
        },
        {
          "internalType": "bool",
          "name": "approved",
          "type": "bool"
        }
      ],
      "name": "setApprovalForAll",
      "outputs": [],
      "stateMutability": "nonpayable",
      "type": "function"
    },
    {
      "inputs": [
        {
          "internalType": "string",
          "name": "name",
          "type": "string"
        },
        {
          "internalType": "string",
          "name": "record",
          "type": "string"
        }
      ],
      "name": "setRecord",
      "outputs": [],
      "stateMutability": "nonpayable",
      "type": "function"
    },
    {
      "inputs": [
        {
          "internalType": "bytes4",
          "name": "interfaceId",
          "type": "bytes4"
        }
      ],
      "name": "supportsInterface",
      "outputs": [
        {
          "internalType": "bool",
          "name": "",
          "type": "bool"
        }
      ],
      "stateMutability": "view",
      "type": "function"
    },
    {
      "inputs": [],
      "name": "symbol",
      "outputs": [
        {
          "internalType": "string",
          "name": "",
          "type": "string"
        }
      ],
      "stateMutability": "view",
      "type": "function"
    },
    {
      "inputs": [],
      "name": "tld",
      "outputs": [
        {
          "internalType": "string",
          "name": "",
          "type": "string"
        }
      ],
      "stateMutability": "view",
      "type": "function"
    },
    {
      "inputs": [
        {
          "internalType": "uint256",
          "name": "tokenId",
          "type": "uint256"
        }
      ],
      "name": "tokenURI",
      "outputs": [
        {
          "internalType": "string",
          "name": "",
          "type": "string"
        }
      ],
      "stateMutability": "view",
      "type": "function"
    },
    {
      "inputs": [
        {
          "internalType": "address",
          "name": "from",
          "type": "address"
        },
        {
          "internalType": "address",
          "name": "to",
          "type": "address"
        },
        {
          "internalType": "uint256",
          "name": "tokenId",
          "type": "uint256"
        }
      ],
      "name": "transferFrom",
      "outputs": [],
      "stateMutability": "nonpayable",
      "type": "function"
    }
  ],
  "bytecode": "0x6080604052604051806108a0016040528061086b815260200162004a2f61086b9139600890805190602001906200003892919062000287565b506040518060400160405280600d81526020017f3c2f746578743e3c2f7376673e00000000000000000000000000000000000000815250600990805190602001906200008692919062000287565b506040516200529a3803806200529a8339818101604052810190620000ac9190620004d4565b6040518060400160405280601281526020017f4e696e6a61204e616d65205365727669636500000000000000000000000000008152506040518060400160405280600381526020017f4e4e53000000000000000000000000000000000000000000000000000000000081525081600090805190602001906200013092919062000287565b5080600190805190602001906200014992919062000287565b50505080600a90805190602001906200016492919062000287565b50620001b16040518060400160405280601881526020017f2573206e616d652073657276696365206465706c6f796564000000000000000081525082620001b860201b620015671760201c565b5062000622565b6200025a8282604051602401620001d192919062000582565b6040516020818303038152906040527f4b5c4277000000000000000000000000000000000000000000000000000000007bffffffffffffffffffffffffffffffffffffffffffffffffffffffff19166020820180517bffffffffffffffffffffffffffffffffffffffffffffffffffffffff83818316178352505050506200025e60201b60201c565b5050565b60008151905060006a636f6e736f6c652e6c6f679050602083016000808483855afa5050505050565b8280546200029590620005ec565b90600052602060002090601f016020900481019282620002b9576000855562000305565b82601f10620002d457805160ff191683800117855562000305565b8280016001018555821562000305579182015b8281111562000304578251825591602001919060010190620002e7565b5b50905062000314919062000318565b5090565b5b808211156200033357600081600090555060010162000319565b5090565b6000604051905090565b600080fd5b600080fd5b600080fd5b600080fd5b6000601f19601f8301169050919050565b7f4e487b7100000000000000000000000000000000000000000000000000000000600052604160045260246000fd5b620003a08262000355565b810181811067ffffffffffffffff82111715620003c257620003c162000366565b5b80604052505050565b6000620003d762000337565b9050620003e5828262000395565b919050565b600067ffffffffffffffff82111562000408576200040762000366565b5b620004138262000355565b9050602081019050919050565b60005b838110156200044057808201518184015260208101905062000423565b8381111562000450576000848401525b50505050565b60006200046d6200046784620003ea565b620003cb565b9050828152602081018484840111156200048c576200048b62000350565b5b6200049984828562000420565b509392505050565b600082601f830112620004b957620004b86200034b565b5b8151620004cb84826020860162000456565b91505092915050565b600060208284031215620004ed57620004ec62000341565b5b600082015167ffffffffffffffff8111156200050e576200050d62000346565b5b6200051c84828501620004a1565b91505092915050565b600081519050919050565b600082825260208201905092915050565b60006200054e8262000525565b6200055a818562000530565b93506200056c81856020860162000420565b620005778162000355565b840191505092915050565b600060408201905081810360008301526200059e818562000541565b90508181036020830152620005b4818462000541565b90509392505050565b7f4e487b7100000000000000000000000000000000000000000000000000000000600052602260045260246000fd5b600060028204905060018216806200060557607f821691505b602082108114156200061c576200061b620005bd565b5b50919050565b6143fd80620006326000396000f3fe60806040526004361061012a5760003560e01c80636352211e116100ab578063bf40fac11161006f578063bf40fac114610428578063c1880a9814610465578063c87b56dd1461048e578063e985e9c5146104cb578063f2c298be14610508578063fe2c6198146105245761012a565b80636352211e1461033157806370a082311461036e57806395d89b41146103ab578063a22cb465146103d6578063b88d4fde146103ff5761012a565b806323b872dd116100f257806323b872dd1461023a57806326449235146102635780632d551432146102a057806342842e0e146102cb578063541e771d146102f45761012a565b806301ffc9a71461012f57806306fdde031461016c578063081812fc14610197578063095ea7b3146101d457806311dd8845146101fd575b600080fd5b34801561013b57600080fd5b50610156600480360381019061015191906129ad565b610561565b60405161016391906129f5565b60405180910390f35b34801561017857600080fd5b50610181610643565b60405161018e9190612aa9565b60405180910390f35b3480156101a357600080fd5b506101be60048036038101906101b99190612b01565b6106d5565b6040516101cb9190612b6f565b60405180910390f35b3480156101e057600080fd5b506101fb60048036038101906101f69190612bb6565b61075a565b005b34801561020957600080fd5b50610224600480360381019061021f9190612c5b565b610872565b6040516102319190612aa9565b60405180910390f35b34801561024657600080fd5b50610261600480360381019061025c9190612ca8565b610925565b005b34801561026f57600080fd5b5061028a60048036038101906102859190612e2b565b610985565b6040516102979190612b6f565b60405180910390f35b3480156102ac57600080fd5b506102b56109ce565b6040516102c29190612aa9565b60405180910390f35b3480156102d757600080fd5b506102f260048036038101906102ed9190612ca8565b610a5c565b005b34801561030057600080fd5b5061031b60048036038101906103169190612e2b565b610a7c565b6040516103289190612aa9565b60405180910390f35b34801561033d57600080fd5b5061035860048036038101906103539190612b01565b610b32565b6040516103659190612b6f565b60405180910390f35b34801561037a57600080fd5b5061039560048036038101906103909190612e74565b610be4565b6040516103a29190612eb0565b60405180910390f35b3480156103b757600080fd5b506103c0610c9c565b6040516103cd9190612aa9565b60405180910390f35b3480156103e257600080fd5b506103fd60048036038101906103f89190612ef7565b610d2e565b005b34801561040b57600080fd5b5061042660048036038101906104219190612fd8565b610d44565b005b34801561043457600080fd5b5061044f600480360381019061044a9190612c5b565b610da6565b60405161045c9190612b6f565b60405180910390f35b34801561047157600080fd5b5061048c6004803603810190610487919061305b565b610df1565b005b34801561049a57600080fd5b506104b560048036038101906104b09190612b01565b610efa565b6040516104c29190612aa9565b60405180910390f35b3480156104d757600080fd5b506104f260048036038101906104ed91906130dc565b61104c565b6040516104ff91906129f5565b60405180910390f35b610522600480360381019061051d9190612c5b565b6110e0565b005b34801561053057600080fd5b5061054b60048036038101906105469190612c5b565b6114c1565b6040516105589190612eb0565b60405180910390f35b60007f80ac58cd000000000000000000000000000000000000000000000000000000007bffffffffffffffffffffffffffffffffffffffffffffffffffffffff1916827bffffffffffffffffffffffffffffffffffffffffffffffffffffffff1916148061062c57507f5b5e139f000000000000000000000000000000000000000000000000000000007bffffffffffffffffffffffffffffffffffffffffffffffffffffffff1916827bffffffffffffffffffffffffffffffffffffffffffffffffffffffff1916145b8061063c575061063b82611603565b5b9050919050565b6060600080546106529061314b565b80601f016020809104026020016040519081016040528092919081815260200182805461067e9061314b565b80156106cb5780601f106106a0576101008083540402835291602001916106cb565b820191906000526020600020905b8154815290600101906020018083116106ae57829003601f168201915b5050505050905090565b60006106e08261166d565b61071f576040517f08c379a0000000000000000000000000000000000000000000000000000000008152600401610716906131ef565b60405180910390fd5b6004600083815260200190815260200160002060009054906101000a900473ffffffffffffffffffffffffffffffffffffffff169050919050565b600061076582610b32565b90508073ffffffffffffffffffffffffffffffffffffffff168373ffffffffffffffffffffffffffffffffffffffff1614156107d6576040517f08c379a00000000000000000000000000000000000000000000000000000000081526004016107cd90613281565b60405180910390fd5b8073ffffffffffffffffffffffffffffffffffffffff166107f56116d9565b73ffffffffffffffffffffffffffffffffffffffff16148061082457506108238161081e6116d9565b61104c565b5b610863576040517f08c379a000000000000000000000000000000000000000000000000000000000815260040161085a90613313565b60405180910390fd5b61086d83836116e1565b505050565b6060600c8383604051610886929190613363565b9081526020016040518091039020805461089f9061314b565b80601f01602080910402602001604051908101604052809291908181526020018280546108cb9061314b565b80156109185780601f106108ed57610100808354040283529160200191610918565b820191906000526020600020905b8154815290600101906020018083116108fb57829003601f168201915b5050505050905092915050565b6109366109306116d9565b8261179a565b610975576040517f08c379a000000000000000000000000000000000000000000000000000000000815260040161096c906133ee565b60405180910390fd5b610980838383611878565b505050565b600b818051602081018201805184825260208301602085012081835280955050505050506000915054906101000a900473ffffffffffffffffffffffffffffffffffffffff1681565b600a80546109db9061314b565b80601f0160208091040260200160405190810160405280929190818152602001828054610a079061314b565b8015610a545780601f10610a2957610100808354040283529160200191610a54565b820191906000526020600020905b815481529060010190602001808311610a3757829003601f168201915b505050505081565b610a7783838360405180602001604052806000815250610d44565b505050565b600c818051602081018201805184825260208301602085012081835280955050505050506000915090508054610ab19061314b565b80601f0160208091040260200160405190810160405280929190818152602001828054610add9061314b565b8015610b2a5780601f10610aff57610100808354040283529160200191610b2a565b820191906000526020600020905b815481529060010190602001808311610b0d57829003601f168201915b505050505081565b6000806002600084815260200190815260200160002060009054906101000a900473ffffffffffffffffffffffffffffffffffffffff169050600073ffffffffffffffffffffffffffffffffffffffff168173ffffffffffffffffffffffffffffffffffffffff161415610bdb576040517f08c379a0000000000000000000000000000000000000000000000000000000008152600401610bd290613480565b60405180910390fd5b80915050919050565b60008073ffffffffffffffffffffffffffffffffffffffff168273ffffffffffffffffffffffffffffffffffffffff161415610c55576040517f08c379a0000000000000000000000000000000000000000000000000000000008152600401610c4c90613512565b60405180910390fd5b600360008373ffffffffffffffffffffffffffffffffffffffff1673ffffffffffffffffffffffffffffffffffffffff168152602001908152602001600020549050919050565b606060018054610cab9061314b565b80601f0160208091040260200160405190810160405280929190818152602001828054610cd79061314b565b8015610d245780601f10610cf957610100808354040283529160200191610d24565b820191906000526020600020905b815481529060010190602001808311610d0757829003601f168201915b5050505050905090565b610d40610d396116d9565b8383611adf565b5050565b610d55610d4f6116d9565b8361179a565b610d94576040517f08c379a0000000000000000000000000000000000000000000000000000000008152600401610d8b906133ee565b60405180910390fd5b610da084848484611c4c565b50505050565b6000600b8383604051610dba929190613363565b908152602001604051809103902060009054906101000a900473ffffffffffffffffffffffffffffffffffffffff16905092915050565b3373ffffffffffffffffffffffffffffffffffffffff16600b8585604051610e1a929190613363565b908152602001604051809103902060009054906101000a900473ffffffffffffffffffffffffffffffffffffffff1673ffffffffffffffffffffffffffffffffffffffff16148484604051602001610e739291906135a4565b60405160208183030381529060405290610ec3576040517f08c379a0000000000000000000000000000000000000000000000000000000008152600401610eba9190612aa9565b60405180910390fd5b508181600c8686604051610ed8929190613363565b90815260200160405180910390209190610ef3929190612818565b5050505050565b6060610f058261166d565b610f44576040517f08c379a0000000000000000000000000000000000000000000000000000000008152600401610f3b9061363a565b60405180910390fd5b6000600660008481526020019081526020016000208054610f649061314b565b80601f0160208091040260200160405190810160405280929190818152602001828054610f909061314b565b8015610fdd5780601f10610fb257610100808354040283529160200191610fdd565b820191906000526020600020905b815481529060010190602001808311610fc057829003601f168201915b505050505090506000610fee611ca8565b9050600081511415611004578192505050611047565b60008251111561103957808260405160200161102192919061368b565b60405160208183030381529060405292505050611047565b61104284611cbf565b925050505b919050565b6000600560008473ffffffffffffffffffffffffffffffffffffffff1673ffffffffffffffffffffffffffffffffffffffff16815260200190815260200160002060008373ffffffffffffffffffffffffffffffffffffffff1673ffffffffffffffffffffffffffffffffffffffff16815260200190815260200160002060009054906101000a900460ff16905092915050565b600073ffffffffffffffffffffffffffffffffffffffff16600b838360405161110a929190613363565b908152602001604051809103902060009054906101000a900473ffffffffffffffffffffffffffffffffffffffff1673ffffffffffffffffffffffffffffffffffffffff161461115957600080fd5b600061116583836114c1565b9050803410156111aa576040517f08c379a00000000000000000000000000000000000000000000000000000000081526004016111a1906136fb565b60405180910390fd5b60008383600a6040516020016111c2939291906137fb565b6040516020818303038152906040529050600060088260096040516020016111ec9392919061382c565b604051602081830303815290604052905060006112096007611d66565b9050600061125a87878080601f016020809104026020016040519081016040528093929190818152602001838380828437600081840152601f19601f82011690508083019250505050505050611d74565b9050600061126782611f29565b905061135b60405180606001604052806031815260200161431e6031913989898080601f016020809104026020016040519081016040528093929190818152602001838380828437600081840152601f19601f82011690508083019250505050505050600a80546112d79061314b565b80601f01602080910402602001604051908101604052809291908181526020018280546113039061314b565b80156113505780601f1061132557610100808354040283529160200191611350565b820191906000526020600020905b81548152906001019060200180831161133357829003601f168201915b50505050508661208a565b60006113918661136a8761212c565b8460405160200161137d939291906139d9565b60405160208183030381529060405261212c565b90506000816040516020016113a69190613a82565b60405160208183030381529060405290506113d86040518060600160405280603981526020016142e5603991396122c4565b6114176040518060400160405280600e81526020017f46696e616c20746f6b656e55524900000000000000000000000000000000000081525082611567565b61143860405180606001604052806039815260200161434f603991396122c4565b611442338661235d565b61144c858261237b565b33600b8b8b60405161145f929190613363565b908152602001604051809103902060006101000a81548173ffffffffffffffffffffffffffffffffffffffff021916908373ffffffffffffffffffffffffffffffffffffffff1602179055506114b560076123ef565b50505050505050505050565b60008061151184848080601f016020809104026020016040519081016040528093929190818152602001838380828437600081840152601f19601f82011690508083019250505050505050611d74565b90506000811161152057600080fd5b600381141561153a576706f05b59d3b20000915050611561565b600481141561155457670429d069189e0000915050611561565b67016345785d8a00009150505b92915050565b6115ff828260405160240161157d929190613aa4565b6040516020818303038152906040527f4b5c4277000000000000000000000000000000000000000000000000000000007bffffffffffffffffffffffffffffffffffffffffffffffffffffffff19166020820180517bffffffffffffffffffffffffffffffffffffffffffffffffffffffff8381831617835250505050612405565b5050565b60007f01ffc9a7000000000000000000000000000000000000000000000000000000007bffffffffffffffffffffffffffffffffffffffffffffffffffffffff1916827bffffffffffffffffffffffffffffffffffffffffffffffffffffffff1916149050919050565b60008073ffffffffffffffffffffffffffffffffffffffff166002600084815260200190815260200160002060009054906101000a900473ffffffffffffffffffffffffffffffffffffffff1673ffffffffffffffffffffffffffffffffffffffff1614159050919050565b600033905090565b816004600083815260200190815260200160002060006101000a81548173ffffffffffffffffffffffffffffffffffffffff021916908373ffffffffffffffffffffffffffffffffffffffff160217905550808273ffffffffffffffffffffffffffffffffffffffff1661175483610b32565b73ffffffffffffffffffffffffffffffffffffffff167f8c5be1e5ebec7d5bd14f71427d1e84f3dd0314c0f7b2291e5b200ac8c7c3b92560405160405180910390a45050565b60006117a58261166d565b6117e4576040517f08c379a00000000000000000000000000000000000000000000000000000000081526004016117db90613b4d565b60405180910390fd5b60006117ef83610b32565b90508073ffffffffffffffffffffffffffffffffffffffff168473ffffffffffffffffffffffffffffffffffffffff1614806118315750611830818561104c565b5b8061186f57508373ffffffffffffffffffffffffffffffffffffffff16611857846106d5565b73ffffffffffffffffffffffffffffffffffffffff16145b91505092915050565b8273ffffffffffffffffffffffffffffffffffffffff1661189882610b32565b73ffffffffffffffffffffffffffffffffffffffff16146118ee576040517f08c379a00000000000000000000000000000000000000000000000000000000081526004016118e590613bdf565b60405180910390fd5b600073ffffffffffffffffffffffffffffffffffffffff168273ffffffffffffffffffffffffffffffffffffffff16141561195e576040517f08c379a000000000000000000000000000000000000000000000000000000000815260040161195590613c71565b60405180910390fd5b61196983838361242e565b6119746000826116e1565b6001600360008573ffffffffffffffffffffffffffffffffffffffff1673ffffffffffffffffffffffffffffffffffffffff16815260200190815260200160002060008282546119c49190613cc0565b925050819055506001600360008473ffffffffffffffffffffffffffffffffffffffff1673ffffffffffffffffffffffffffffffffffffffff1681526020019081526020016000206000828254611a1b9190613cf4565b92505081905550816002600083815260200190815260200160002060006101000a81548173ffffffffffffffffffffffffffffffffffffffff021916908373ffffffffffffffffffffffffffffffffffffffff160217905550808273ffffffffffffffffffffffffffffffffffffffff168473ffffffffffffffffffffffffffffffffffffffff167fddf252ad1be2c89b69c2b068fc378daa952ba7f163c4a11628f55a4df523b3ef60405160405180910390a4611ada838383612433565b505050565b8173ffffffffffffffffffffffffffffffffffffffff168373ffffffffffffffffffffffffffffffffffffffff161415611b4e576040517f08c379a0000000000000000000000000000000000000000000000000000000008152600401611b4590613d96565b60405180910390fd5b80600560008573ffffffffffffffffffffffffffffffffffffffff1673ffffffffffffffffffffffffffffffffffffffff16815260200190815260200160002060008473ffffffffffffffffffffffffffffffffffffffff1673ffffffffffffffffffffffffffffffffffffffff16815260200190815260200160002060006101000a81548160ff0219169083151502179055508173ffffffffffffffffffffffffffffffffffffffff168373ffffffffffffffffffffffffffffffffffffffff167f17307eab39ab6107e8899845ad3d59bd9653f200f220920489ca2b5937696c3183604051611c3f91906129f5565b60405180910390a3505050565b611c57848484611878565b611c6384848484612438565b611ca2576040517f08c379a0000000000000000000000000000000000000000000000000000000008152600401611c9990613e28565b60405180910390fd5b50505050565b606060405180602001604052806000815250905090565b6060611cca8261166d565b611d09576040517f08c379a0000000000000000000000000000000000000000000000000000000008152600401611d0090613eba565b60405180910390fd5b6000611d13611ca8565b90506000815111611d335760405180602001604052806000815250611d5e565b80611d3d84611f29565b604051602001611d4e92919061368b565b6040516020818303038152906040525b915050919050565b600081600001549050919050565b60008060008084519050600092505b80821015611f1e576000858381518110611da057611d9f613eda565b5b602001015160f81c60f81b9050608060f81b817effffffffffffffffffffffffffffffffffffffffffffffffffffffffffffff19161015611def57600183611de89190613cf4565b9250611f0a565b60e060f81b817effffffffffffffffffffffffffffffffffffffffffffffffffffffffffffff19161015611e3157600283611e2a9190613cf4565b9250611f09565b60f060f81b817effffffffffffffffffffffffffffffffffffffffffffffffffffffffffffff19161015611e7357600383611e6c9190613cf4565b9250611f08565b60f8801b817effffffffffffffffffffffffffffffffffffffffffffffffffffffffffffff19161015611eb457600483611ead9190613cf4565b9250611f07565b60fc60f81b817effffffffffffffffffffffffffffffffffffffffffffffffffffffffffffff19161015611ef657600583611eef9190613cf4565b9250611f06565b600683611f039190613cf4565b92505b5b5b5b5b508280611f1690613f09565b935050611d83565b829350505050919050565b60606000821415611f71576040518060400160405280600181526020017f30000000000000000000000000000000000000000000000000000000000000008152509050612085565b600082905060005b60008214611fa3578080611f8c90613f09565b915050600a82611f9c9190613f81565b9150611f79565b60008167ffffffffffffffff811115611fbf57611fbe612d00565b5b6040519080825280601f01601f191660200182016040528015611ff15781602001600182028036833780820191505090505b5090505b6000851461207e5760018261200a9190613cc0565b9150600a856120199190613fb2565b60306120259190613cf4565b60f81b81838151811061203b5761203a613eda565b5b60200101907effffffffffffffffffffffffffffffffffffffffffffffffffffffffffffff1916908160001a905350600a856120779190613f81565b9450611ff5565b8093505050505b919050565b612126848484846040516024016120a49493929190613fe3565b6040516020818303038152906040527f9fd009f5000000000000000000000000000000000000000000000000000000007bffffffffffffffffffffffffffffffffffffffffffffffffffffffff19166020820180517bffffffffffffffffffffffffffffffffffffffffffffffffffffffff8381831617835250505050612405565b50505050565b6060600082519050600081141561215557604051806020016040528060008152509150506122bf565b600060036002836121669190613cf4565b6121709190613f81565b600461217c919061403d565b9050600060208261218d9190613cf4565b67ffffffffffffffff8111156121a6576121a5612d00565b5b6040519080825280601f01601f1916602001820160405280156121d85781602001600182028036833780820191505090505b5090506000604051806060016040528060408152602001614388604091399050600181016020830160005b8681101561227c5760038101905062ffffff818a015116603f8160121c168401518060081b905060ff603f83600c1c1686015116810190508060081b905060ff603f8360061c1686015116810190508060081b905060ff603f831686015116810190508060e01b90508084526004840193505050612203565b50600386066001811461229657600281146122a6576122b1565b613d3d60f01b60028303526122b1565b603d60f81b60018303525b508484525050819450505050505b919050565b61235a816040516024016122d89190612aa9565b6040516020818303038152906040527f41304fac000000000000000000000000000000000000000000000000000000007bffffffffffffffffffffffffffffffffffffffffffffffffffffffff19166020820180517bffffffffffffffffffffffffffffffffffffffffffffffffffffffff8381831617835250505050612405565b50565b6123778282604051806020016040528060008152506125c0565b5050565b6123848261166d565b6123c3576040517f08c379a00000000000000000000000000000000000000000000000000000000081526004016123ba90614109565b60405180910390fd5b806006600084815260200190815260200160002090805190602001906123ea92919061289e565b505050565b6001816000016000828254019250508190555050565b60008151905060006a636f6e736f6c652e6c6f679050602083016000808483855afa5050505050565b505050565b505050565b60006124598473ffffffffffffffffffffffffffffffffffffffff1661261b565b156125b3578373ffffffffffffffffffffffffffffffffffffffff1663150b7a026124826116d9565b8786866040518563ffffffff1660e01b81526004016124a4949392919061417e565b6020604051808303816000875af19250505080156124e057506040513d601f19601f820116820180604052508101906124dd91906141df565b60015b612563573d8060008114612510576040519150601f19603f3d011682016040523d82523d6000602084013e612515565b606091505b5060008151141561255b576040517f08c379a000000000000000000000000000000000000000000000000000000000815260040161255290613e28565b60405180910390fd5b805181602001fd5b63150b7a0260e01b7bffffffffffffffffffffffffffffffffffffffffffffffffffffffff1916817bffffffffffffffffffffffffffffffffffffffffffffffffffffffff1916149150506125b8565b600190505b949350505050565b6125ca838361263e565b6125d76000848484612438565b612616576040517f08c379a000000000000000000000000000000000000000000000000000000000815260040161260d90613e28565b60405180910390fd5b505050565b6000808273ffffffffffffffffffffffffffffffffffffffff163b119050919050565b600073ffffffffffffffffffffffffffffffffffffffff168273ffffffffffffffffffffffffffffffffffffffff1614156126ae576040517f08c379a00000000000000000000000000000000000000000000000000000000081526004016126a590614258565b60405180910390fd5b6126b78161166d565b156126f7576040517f08c379a00000000000000000000000000000000000000000000000000000000081526004016126ee906142c4565b60405180910390fd5b6127036000838361242e565b6001600360008473ffffffffffffffffffffffffffffffffffffffff1673ffffffffffffffffffffffffffffffffffffffff16815260200190815260200160002060008282546127539190613cf4565b92505081905550816002600083815260200190815260200160002060006101000a81548173ffffffffffffffffffffffffffffffffffffffff021916908373ffffffffffffffffffffffffffffffffffffffff160217905550808273ffffffffffffffffffffffffffffffffffffffff16600073ffffffffffffffffffffffffffffffffffffffff167fddf252ad1be2c89b69c2b068fc378daa952ba7f163c4a11628f55a4df523b3ef60405160405180910390a461281460008383612433565b5050565b8280546128249061314b565b90600052602060002090601f016020900481019282612846576000855561288d565b82601f1061285f57803560ff191683800117855561288d565b8280016001018555821561288d579182015b8281111561288c578235825591602001919060010190612871565b5b50905061289a9190612924565b5090565b8280546128aa9061314b565b90600052602060002090601f0160209004810192826128cc5760008555612913565b82601f106128e557805160ff1916838001178555612913565b82800160010185558215612913579182015b828111156129125782518255916020019190600101906128f7565b5b5090506129209190612924565b5090565b5b8082111561293d576000816000905550600101612925565b5090565b6000604051905090565b600080fd5b600080fd5b60007fffffffff0000000000000000000000000000000000000000000000000000000082169050919050565b61298a81612955565b811461299557600080fd5b50565b6000813590506129a781612981565b92915050565b6000602082840312156129c3576129c261294b565b5b60006129d184828501612998565b91505092915050565b60008115159050919050565b6129ef816129da565b82525050565b6000602082019050612a0a60008301846129e6565b92915050565b600081519050919050565b600082825260208201905092915050565b60005b83811015612a4a578082015181840152602081019050612a2f565b83811115612a59576000848401525b50505050565b6000601f19601f8301169050919050565b6000612a7b82612a10565b612a858185612a1b565b9350612a95818560208601612a2c565b612a9e81612a5f565b840191505092915050565b60006020820190508181036000830152612ac38184612a70565b905092915050565b6000819050919050565b612ade81612acb565b8114612ae957600080fd5b50565b600081359050612afb81612ad5565b92915050565b600060208284031215612b1757612b1661294b565b5b6000612b2584828501612aec565b91505092915050565b600073ffffffffffffffffffffffffffffffffffffffff82169050919050565b6000612b5982612b2e565b9050919050565b612b6981612b4e565b82525050565b6000602082019050612b846000830184612b60565b92915050565b612b9381612b4e565b8114612b9e57600080fd5b50565b600081359050612bb081612b8a565b92915050565b60008060408385031215612bcd57612bcc61294b565b5b6000612bdb85828601612ba1565b9250506020612bec85828601612aec565b9150509250929050565b600080fd5b600080fd5b600080fd5b60008083601f840112612c1b57612c1a612bf6565b5b8235905067ffffffffffffffff811115612c3857612c37612bfb565b5b602083019150836001820283011115612c5457612c53612c00565b5b9250929050565b60008060208385031215612c7257612c7161294b565b5b600083013567ffffffffffffffff811115612c9057612c8f612950565b5b612c9c85828601612c05565b92509250509250929050565b600080600060608486031215612cc157612cc061294b565b5b6000612ccf86828701612ba1565b9350506020612ce086828701612ba1565b9250506040612cf186828701612aec565b9150509250925092565b600080fd5b7f4e487b7100000000000000000000000000000000000000000000000000000000600052604160045260246000fd5b612d3882612a5f565b810181811067ffffffffffffffff82111715612d5757612d56612d00565b5b80604052505050565b6000612d6a612941565b9050612d768282612d2f565b919050565b600067ffffffffffffffff821115612d9657612d95612d00565b5b612d9f82612a5f565b9050602081019050919050565b82818337600083830152505050565b6000612dce612dc984612d7b565b612d60565b905082815260208101848484011115612dea57612de9612cfb565b5b612df5848285612dac565b509392505050565b600082601f830112612e1257612e11612bf6565b5b8135612e22848260208601612dbb565b91505092915050565b600060208284031215612e4157612e4061294b565b5b600082013567ffffffffffffffff811115612e5f57612e5e612950565b5b612e6b84828501612dfd565b91505092915050565b600060208284031215612e8a57612e8961294b565b5b6000612e9884828501612ba1565b91505092915050565b612eaa81612acb565b82525050565b6000602082019050612ec56000830184612ea1565b92915050565b612ed4816129da565b8114612edf57600080fd5b50565b600081359050612ef181612ecb565b92915050565b60008060408385031215612f0e57612f0d61294b565b5b6000612f1c85828601612ba1565b9250506020612f2d85828601612ee2565b9150509250929050565b600067ffffffffffffffff821115612f5257612f51612d00565b5b612f5b82612a5f565b9050602081019050919050565b6000612f7b612f7684612f37565b612d60565b905082815260208101848484011115612f9757612f96612cfb565b5b612fa2848285612dac565b509392505050565b600082601f830112612fbf57612fbe612bf6565b5b8135612fcf848260208601612f68565b91505092915050565b60008060008060808587031215612ff257612ff161294b565b5b600061300087828801612ba1565b945050602061301187828801612ba1565b935050604061302287828801612aec565b925050606085013567ffffffffffffffff81111561304357613042612950565b5b61304f87828801612faa565b91505092959194509250565b600080600080604085870312156130755761307461294b565b5b600085013567ffffffffffffffff81111561309357613092612950565b5b61309f87828801612c05565b9450945050602085013567ffffffffffffffff8111156130c2576130c1612950565b5b6130ce87828801612c05565b925092505092959194509250565b600080604083850312156130f3576130f261294b565b5b600061310185828601612ba1565b925050602061311285828601612ba1565b9150509250929050565b7f4e487b7100000000000000000000000000000000000000000000000000000000600052602260045260246000fd5b6000600282049050600182168061316357607f821691505b602082108114156131775761317661311c565b5b50919050565b7f4552433732313a20617070726f76656420717565727920666f72206e6f6e657860008201527f697374656e7420746f6b656e0000000000000000000000000000000000000000602082015250565b60006131d9602c83612a1b565b91506131e48261317d565b604082019050919050565b60006020820190508181036000830152613208816131cc565b9050919050565b7f4552433732313a20617070726f76616c20746f2063757272656e74206f776e6560008201527f7200000000000000000000000000000000000000000000000000000000000000602082015250565b600061326b602183612a1b565b91506132768261320f565b604082019050919050565b6000602082019050818103600083015261329a8161325e565b9050919050565b7f4552433732313a20617070726f76652063616c6c6572206973206e6f74206f7760008201527f6e6572206e6f7220617070726f76656420666f7220616c6c0000000000000000602082015250565b60006132fd603883612a1b565b9150613308826132a1565b604082019050919050565b6000602082019050818103600083015261332c816132f0565b9050919050565b600081905092915050565b600061334a8385613333565b9350613357838584612dac565b82840190509392505050565b600061337082848661333e565b91508190509392505050565b7f4552433732313a207472616e736665722063616c6c6572206973206e6f74206f60008201527f776e6572206e6f7220617070726f766564000000000000000000000000000000602082015250565b60006133d8603183612a1b565b91506133e38261337c565b604082019050919050565b60006020820190508181036000830152613407816133cb565b9050919050565b7f4552433732313a206f776e657220717565727920666f72206e6f6e657869737460008201527f656e7420746f6b656e0000000000000000000000000000000000000000000000602082015250565b600061346a602983612a1b565b91506134758261340e565b604082019050919050565b600060208201905081810360008301526134998161345d565b9050919050565b7f4552433732313a2062616c616e636520717565727920666f7220746865207a6560008201527f726f206164647265737300000000000000000000000000000000000000000000602082015250565b60006134fc602a83612a1b565b9150613507826134a0565b604082019050919050565b6000602082019050818103600083015261352b816134ef565b9050919050565b7f596f7520617265206e6f7420746865206f776e776572206f662074686520646f60008201527f6d61696e20000000000000000000000000000000000000000000000000000000602082015250565b600061358e602583613333565b915061359982613532565b602582019050919050565b60006135af82613581565b91506135bc82848661333e565b91508190509392505050565b7f45524337323155524953746f726167653a2055524920717565727920666f722060008201527f6e6f6e6578697374656e7420746f6b656e000000000000000000000000000000602082015250565b6000613624603183612a1b565b915061362f826135c8565b604082019050919050565b6000602082019050818103600083015261365381613617565b9050919050565b600061366582612a10565b61366f8185613333565b935061367f818560208601612a2c565b80840191505092915050565b6000613697828561365a565b91506136a3828461365a565b91508190509392505050565b7f4e6f7420656e6f756768204d6174696320706169640000000000000000000000600082015250565b60006136e5601583612a1b565b91506136f0826136af565b602082019050919050565b60006020820190508181036000830152613714816136d8565b9050919050565b7f2e00000000000000000000000000000000000000000000000000000000000000600082015250565b6000613751600183613333565b915061375c8261371b565b600182019050919050565b60008190508160005260206000209050919050565b600081546137898161314b565b6137938186613333565b945060018216600081146137ae57600181146137bf576137f2565b60ff198316865281860193506137f2565b6137c885613767565b60005b838110156137ea578154818901526001820191506020810190506137cb565b838801955050505b50505092915050565b600061380882858761333e565b915061381382613744565b915061381f828461377c565b9150819050949350505050565b6000613838828661377c565b9150613844828561365a565b9150613850828461377c565b9150819050949350505050565b7f7b226e616d65223a202200000000000000000000000000000000000000000000600082015250565b6000613893600a83613333565b915061389e8261385d565b600a82019050919050565b7f222c20226465736372697074696f6e223a20224120646f6d61696e206f6e207460008201527f6865204e696e6a61206e616d652073657276696365222c2022696d616765223a60208201527f2022646174613a696d6167652f7376672b786d6c3b6261736536342c00000000604082015250565b600061392b605c83613333565b9150613936826138a9565b605c82019050919050565b7f222c226c656e677468223a220000000000000000000000000000000000000000600082015250565b6000613977600c83613333565b915061398282613941565b600c82019050919050565b7f227d000000000000000000000000000000000000000000000000000000000000600082015250565b60006139c3600283613333565b91506139ce8261398d565b600282019050919050565b60006139e482613886565b91506139f0828661365a565b91506139fb8261391e565b9150613a07828561365a565b9150613a128261396a565b9150613a1e828461365a565b9150613a29826139b6565b9150819050949350505050565b7f646174613a6170706c69636174696f6e2f6a736f6e3b6261736536342c000000600082015250565b6000613a6c601d83613333565b9150613a7782613a36565b601d82019050919050565b6000613a8d82613a5f565b9150613a99828461365a565b915081905092915050565b60006040820190508181036000830152613abe8185612a70565b90508181036020830152613ad28184612a70565b90509392505050565b7f4552433732313a206f70657261746f7220717565727920666f72206e6f6e657860008201527f697374656e7420746f6b656e0000000000000000000000000000000000000000602082015250565b6000613b37602c83612a1b565b9150613b4282613adb565b604082019050919050565b60006020820190508181036000830152613b6681613b2a565b9050919050565b7f4552433732313a207472616e736665722066726f6d20696e636f72726563742060008201527f6f776e6572000000000000000000000000000000000000000000000000000000602082015250565b6000613bc9602583612a1b565b9150613bd482613b6d565b604082019050919050565b60006020820190508181036000830152613bf881613bbc565b9050919050565b7f4552433732313a207472616e7366657220746f20746865207a65726f2061646460008201527f7265737300000000000000000000000000000000000000000000000000000000602082015250565b6000613c5b602483612a1b565b9150613c6682613bff565b604082019050919050565b60006020820190508181036000830152613c8a81613c4e565b9050919050565b7f4e487b7100000000000000000000000000000000000000000000000000000000600052601160045260246000fd5b6000613ccb82612acb565b9150613cd683612acb565b925082821015613ce957613ce8613c91565b5b828203905092915050565b6000613cff82612acb565b9150613d0a83612acb565b9250827fffffffffffffffffffffffffffffffffffffffffffffffffffffffffffffffff03821115613d3f57613d3e613c91565b5b828201905092915050565b7f4552433732313a20617070726f766520746f2063616c6c657200000000000000600082015250565b6000613d80601983612a1b565b9150613d8b82613d4a565b602082019050919050565b60006020820190508181036000830152613daf81613d73565b9050919050565b7f4552433732313a207472616e7366657220746f206e6f6e20455243373231526560008201527f63656976657220696d706c656d656e7465720000000000000000000000000000602082015250565b6000613e12603283612a1b565b9150613e1d82613db6565b604082019050919050565b60006020820190508181036000830152613e4181613e05565b9050919050565b7f4552433732314d657461646174613a2055524920717565727920666f72206e6f60008201527f6e6578697374656e7420746f6b656e0000000000000000000000000000000000602082015250565b6000613ea4602f83612a1b565b9150613eaf82613e48565b604082019050919050565b60006020820190508181036000830152613ed381613e97565b9050919050565b7f4e487b7100000000000000000000000000000000000000000000000000000000600052603260045260246000fd5b6000613f1482612acb565b91507fffffffffffffffffffffffffffffffffffffffffffffffffffffffffffffffff821415613f4757613f46613c91565b5b600182019050919050565b7f4e487b7100000000000000000000000000000000000000000000000000000000600052601260045260246000fd5b6000613f8c82612acb565b9150613f9783612acb565b925082613fa757613fa6613f52565b5b828204905092915050565b6000613fbd82612acb565b9150613fc883612acb565b925082613fd857613fd7613f52565b5b828206905092915050565b60006080820190508181036000830152613ffd8187612a70565b905081810360208301526140118186612a70565b905081810360408301526140258185612a70565b90506140346060830184612ea1565b95945050505050565b600061404882612acb565b915061405383612acb565b9250817fffffffffffffffffffffffffffffffffffffffffffffffffffffffffffffffff048311821515161561408c5761408b613c91565b5b828202905092915050565b7f45524337323155524953746f726167653a2055524920736574206f66206e6f6e60008201527f6578697374656e7420746f6b656e000000000000000000000000000000000000602082015250565b60006140f3602e83612a1b565b91506140fe82614097565b604082019050919050565b60006020820190508181036000830152614122816140e6565b9050919050565b600081519050919050565b600082825260208201905092915050565b600061415082614129565b61415a8185614134565b935061416a818560208601612a2c565b61417381612a5f565b840191505092915050565b60006080820190506141936000830187612b60565b6141a06020830186612b60565b6141ad6040830185612ea1565b81810360608301526141bf8184614145565b905095945050505050565b6000815190506141d981612981565b92915050565b6000602082840312156141f5576141f461294b565b5b6000614203848285016141ca565b91505092915050565b7f4552433732313a206d696e7420746f20746865207a65726f2061646472657373600082015250565b6000614242602083612a1b565b915061424d8261420c565b602082019050919050565b6000602082019050818103600083015261427181614235565b9050919050565b7f4552433732313a20746f6b656e20616c7265616479206d696e74656400000000600082015250565b60006142ae601c83612a1b565b91506142b982614278565b602082019050919050565b600060208201905081810360008301526142dd816142a1565b905091905056fe0a2d2d2d2d2d2d2d2d2d2d2d2d2d2d2d2d2d2d2d2d2d2d2d2d2d2d2d2d2d2d2d2d2d2d2d2d2d2d2d2d2d2d2d2d2d2d2d2d2d2d2d2d2d2d2d2d5265676973746572696e672025732e2573206f6e2074686520636f6e7472616374207769746820746f6b656e49442025642d2d2d2d2d2d2d2d2d2d2d2d2d2d2d2d2d2d2d2d2d2d2d2d2d2d2d2d2d2d2d2d2d2d2d2d2d2d2d2d2d2d2d2d2d2d2d2d2d2d2d2d2d2d2d2d0a4142434445464748494a4b4c4d4e4f505152535455565758595a6162636465666768696a6b6c6d6e6f707172737475767778797a303132333435363738392b2fa26469706673582212201c4237c881576b1b3d0494798fbad9ee6e360a5c2599268e5dbfaafa015423fb64736f6c634300080a00333c73766720786d6c6e733d22687474703a2f2f7777772e77332e6f72672f323030302f737667222077696474683d2232373022206865696768743d22323730222066696c6c3d226e6f6e65223e3c706174682066696c6c3d2275726c282342292220643d224d302030683237307632373048307a222f3e3c646566733e3c66696c7465722069643d22412220636f6c6f722d696e746572706f6c6174696f6e2d66696c746572733d2273524742222066696c746572556e6974733d227573657253706163654f6e55736522206865696768743d22323730222077696474683d22323730223e3c666544726f70536861646f772064783d2230222064793d22312220737464446576696174696f6e3d22322220666c6f6f642d6f7061636974793d222e323235222077696474683d223230302522206865696768743d2232303025222f3e3c2f66696c7465723e3c2f646566733e3c7061746820643d224d37322e3836332034322e393439632d2e3636382d2e3338372d312e3432362d2e35392d322e3139372d2e3539732d312e3532392e3230342d322e3139372e35396c2d31302e30383120362e3033322d362e383520332e3933342d31302e30383120362e303332632d2e3636382e3338372d312e3432362e35392d322e3139372e3539732d312e3532392d2e3230342d322e3139372d2e35396c2d382e3031332d342e37323161342e353220342e35322030203020312d312e3538392d312e363136632d2e3338342d2e3636352d2e3539342d312e3431382d2e3630382d322e313837762d392e3331632d2e3031332d2e3737352e3138352d312e3533382e3537322d322e32303861342e323520342e323520302030203120312e3632352d312e3539356c372e3838342d342e3539632e3636382d2e33383720312e3432362d2e353920322e3139372d2e353973312e3532392e32303420322e3139372e35396c372e38383420342e353961342e353220342e353220302030203120312e35383920312e363136632e3338342e3636352e35393420312e3431382e36303820322e31383776362e3033326c362e38352d342e303635762d362e303332632e3031332d2e3737352d2e3138352d312e3533382d2e3537322d322e32303861342e323520342e32352030203020302d312e3632352d312e3539354c34312e3435362032342e3539632d2e3636382d2e3338372d312e3432362d2e35392d322e3139372d2e3539732d312e3532392e3230342d322e3139372e35396c2d31342e38363420382e36353561342e323520342e32352030203020302d312e36323520312e353935632d2e3338372e36372d2e35383520312e3433342d2e35373220322e3230387631372e343431632d2e3031332e3737352e31383520312e3533382e35373220322e32303861342e323520342e323520302030203020312e36323520312e3539356c31342e38363420382e363535632e3636382e33383720312e3432362e353920322e3139372e353973312e3532392d2e32303420322e3139372d2e35396c31302e3038312d352e39303120362e38352d342e3036352031302e3038312d352e393031632e3636382d2e33383720312e3432362d2e353920322e3139372d2e353973312e3532392e32303420322e3139372e35396c372e38383420342e353961342e353220342e353220302030203120312e35383920312e363136632e3338342e3636352e35393420312e3431382e36303820322e31383776392e333131632e3031332e3737352d2e31383520312e3533382d2e35373220322e32303861342e323520342e32352030203020312d312e36323520312e3539356c2d372e38383420342e373231632d2e3636382e3338372d312e3432362e35392d322e3139372e3539732d312e3532392d2e3230342d322e3139372d2e35396c2d372e3838342d342e353961342e353220342e35322030203020312d312e3538392d312e363136632d2e3338352d2e3636352d2e3539342d312e3431382d2e3630382d322e313837762d362e3033326c2d362e383520342e30363576362e303332632d2e3031332e3737352e31383520312e3533382e35373220322e32303861342e323520342e323520302030203020312e36323520312e3539356c31342e38363420382e363535632e3636382e33383720312e3432362e353920322e3139372e353973312e3532392d2e32303420322e3139372d2e35396c31342e3836342d382e363535632e3635372d2e33393420312e3230342d2e393520312e3538392d312e363136732e3539342d312e3431382e3630392d322e3138375635352e353338632e3031332d2e3737352d2e3138352d312e3533382d2e3537322d322e32303861342e323520342e32352030203020302d312e3632352d312e3539356c2d31342e3939332d382e3738367a222066696c6c3d2223666630222f3e3c646566733e3c6c696e6561724772616469656e742069643d2242222078313d2230222079313d2230222078323d22323730222079323d2232373022206772616469656e74556e6974733d227573657253706163654f6e557365223e3c73746f702073746f702d636f6c6f723d2223636235656565222f3e3c73746f70206f66667365743d2231222073746f702d636f6c6f723d2223306364376534222073746f702d6f7061636974793d222e3939222f3e3c2f6c696e6561724772616469656e743e3c2f646566733e3c7465787420783d2233322e352220793d223233312220666f6e742d73697a653d223237222066696c6c3d2223666666222066696c7465723d2275726c282341292220666f6e742d66616d696c793d22506c7573204a616b617274612053616e732c44656a6156752053616e732c4e6f746f20436f6c6f7220456d6f6a692c4170706c6520436f6c6f7220456d6f6a692c73616e732d73657269662220666f6e742d7765696768743d22626f6c64223e",
  "linkReferences": {},
  "deployedLinkReferences": {}
}